{
  "_format": "hh-sol-artifact-1",
  "contractName": "Greeter",
  "sourceName": "contracts/Greeter.sol",
  "abi": [
    {
      "inputs": [
        {
          "internalType": "string",
          "name": "_greeting",
          "type": "string"
        }
      ],
      "stateMutability": "nonpayable",
      "type": "constructor"
    },
    {
      "inputs": [],
      "name": "greet",
      "outputs": [
        {
          "internalType": "string",
          "name": "",
          "type": "string"
        }
      ],
      "stateMutability": "view",
      "type": "function"
    },
    {
      "inputs": [],
      "name": "satHello",
      "outputs": [
        {
          "internalType": "string",
          "name": "",
          "type": "string"
        }
      ],
      "stateMutability": "view",
      "type": "function"
    },
    {
      "inputs": [
        {
          "internalType": "string",
          "name": "_greeting",
          "type": "string"
        }
      ],
      "name": "setGreeting",
      "outputs": [],
      "stateMutability": "nonpayable",
      "type": "function"
    }
  ],
  "bytecode": "0x60806040523480156200001157600080fd5b5060405162000878380380620008788339818101604052810190620000379190620002a4565b80600090805190602001906200004f92919062000057565b50506200035a565b828054620000659062000324565b90600052602060002090601f016020900481019282620000895760008555620000d5565b82601f10620000a457805160ff1916838001178555620000d5565b82800160010185558215620000d5579182015b82811115620000d4578251825591602001919060010190620000b7565b5b509050620000e49190620000e8565b5090565b5b8082111562000103576000816000905550600101620000e9565b5090565b6000604051905090565b600080fd5b600080fd5b600080fd5b600080fd5b6000601f19601f8301169050919050565b7f4e487b7100000000000000000000000000000000000000000000000000000000600052604160045260246000fd5b620001708262000125565b810181811067ffffffffffffffff8211171562000192576200019162000136565b5b80604052505050565b6000620001a762000107565b9050620001b5828262000165565b919050565b600067ffffffffffffffff821115620001d857620001d762000136565b5b620001e38262000125565b9050602081019050919050565b60005b8381101562000210578082015181840152602081019050620001f3565b8381111562000220576000848401525b50505050565b60006200023d6200023784620001ba565b6200019b565b9050828152602081018484840111156200025c576200025b62000120565b5b62000269848285620001f0565b509392505050565b600082601f8301126200028957620002886200011b565b5b81516200029b84826020860162000226565b91505092915050565b600060208284031215620002bd57620002bc62000111565b5b600082015167ffffffffffffffff811115620002de57620002dd62000116565b5b620002ec8482850162000271565b91505092915050565b7f4e487b7100000000000000000000000000000000000000000000000000000000600052602260045260246000fd5b600060028204905060018216806200033d57607f821691505b60208210811415620003545762000353620002f5565b5b50919050565b61050e806200036a6000396000f3fe608060405234801561001057600080fd5b50600436106100415760003560e01c806398de8d8214610046578063a413686214610064578063cfae321714610080575b600080fd5b61004e61009e565b60405161005b91906102c3565b60405180910390f35b61007e6004803603810190610079919061042e565b6100db565b005b6100886100f5565b60405161009591906102c3565b60405180910390f35b60606040518060400160405280600981526020017f5361792048656c6c6f0000000000000000000000000000000000000000000000815250905090565b80600090805190602001906100f1929190610187565b5050565b606060008054610104906104a6565b80601f0160208091040260200160405190810160405280929190818152602001828054610130906104a6565b801561017d5780601f106101525761010080835404028352916020019161017d565b820191906000526020600020905b81548152906001019060200180831161016057829003601f168201915b5050505050905090565b828054610193906104a6565b90600052602060002090601f0160209004810192826101b557600085556101fc565b82601f106101ce57805160ff19168380011785556101fc565b828001600101855582156101fc579182015b828111156101fb5782518255916020019190600101906101e0565b5b509050610209919061020d565b5090565b5b8082111561022657600081600090555060010161020e565b5090565b600081519050919050565b600082825260208201905092915050565b60005b83811015610264578082015181840152602081019050610249565b83811115610273576000848401525b50505050565b6000601f19601f8301169050919050565b60006102958261022a565b61029f8185610235565b93506102af818560208601610246565b6102b881610279565b840191505092915050565b600060208201905081810360008301526102dd818461028a565b905092915050565b6000604051905090565b600080fd5b600080fd5b600080fd5b600080fd5b7f4e487b7100000000000000000000000000000000000000000000000000000000600052604160045260246000fd5b61033b82610279565b810181811067ffffffffffffffff8211171561035a57610359610303565b5b80604052505050565b600061036d6102e5565b90506103798282610332565b919050565b600067ffffffffffffffff82111561039957610398610303565b5b6103a282610279565b9050602081019050919050565b82818337600083830152505050565b60006103d16103cc8461037e565b610363565b9050828152602081018484840111156103ed576103ec6102fe565b5b6103f88482856103af565b509392505050565b600082601f830112610415576104146102f9565b5b81356104258482602086016103be565b91505092915050565b600060208284031215610444576104436102ef565b5b600082013567ffffffffffffffff811115610462576104616102f4565b5b61046e84828501610400565b91505092915050565b7f4e487b7100000000000000000000000000000000000000000000000000000000600052602260045260246000fd5b600060028204905060018216806104be57607f821691505b602082108114156104d2576104d1610477565b5b5091905056fea26469706673582212204dbfe48b4b681fdccbdf0973a5ee37396ad6c7435e4b7f060e5f96f465ebbf3064736f6c63430008090033",
  "linkReferences": {},
  "deployedLinkReferences": {}
}